:08000000803102288531A12D99
:100B4200FD01B0017E102000DB2D43278531961573
:100B520043271108F00008007208F6007308F70036
:100B62007408F8007508F9000E30F936F80CF70C25
:100B7200F60C890BB62D76080439FD042827853139
:100B8200F0017D082027853173081B278531720803
:100B92001B278531CD278531F001F00A7D082027FA
:100BA2008531A6258531FA000130D02785314027CD
:100BB2007A080800210019088739703899009917B6
:100BC200E830F0000330F1002B278531200001309E
:100BD200A301A2008630A100A030A0004B278531DE
:100BE2000030C52785310130D92785310030FB011E
:100BF2000C2785310130FB010C2785312000AC0127
:100C0200AD01AE01AF01A401A40A2F08E527853189
:100C12002408F600EA268531DE2685310038031DD8
:100C22000D2E2000A435ED278531031D212E003025
:100C32002E02031D212E00302D02083003192C0232
:100C4200031C062E8030A50000302F02031D332E18
:100C520000302E02031D332E00302D02031D332ED1
:100C620010302C0203184B2E2F08E527853125085A
:100C7200F600EA268531DE2685310038031D3C2E3A
:100C82002000A536AC0A0319AD0A0319AE0A0319EE
:100C9200AF0A252E8030AC01AD01AE01AF01A60036
:100CA2002F08E52785311030F30701300318F407C8
:100CB2000318F50A2608F600EA268531DE26853174
:100CC2000038031D5F2E2000A636ED278531031D57
:100CD200732E00302E02031D732E00302D020830B9
:100CE20003192C02031C512EA701A70A00302F0260
:100CF200031D852E00302E02031D852E00302D028D
:100D0200031D852E10302C020318A42E2F08E52770
:100D120085311030F30701300318F4070318F50A80
:100D22002708F600EA268531DE2685310038031DC4
:100D3200952E2000A735AC0A0319AD0A0319AE0A95
:100D42000319AF0A772EA801A901AA01AB01F7275F
:100D52008531AD258531FB0012300C27853120000D
:100D6200F72785311030F30701300318F407031811
:100D7200F50AAD258531FB0013300C278531FA3099
:100D8200F000F1012B2785312000A80A0319A90AD6
:100D92000319AA0A0319AB0A00302B02031DDB2E2A
:100DA20000302A02031DDB2E00302902031DDB2E38
:100DB200103028020318A42EA82E28278531F0010E
:100DC2007D0820278531C7278531F2004027720828
:100DD20008007208F7007308F8007408F900750833
:100DE200FA000E30FA36F90CF80CF70C890BF32ED8
:100DF20077080439FD0428278531F0017D08202772
:100E0200853173081B27853172081B2785317608C7
:100E12001B278531402FFC0028278531F001200057
:100E22003008202785317C081B2785317B081B274A
:100E32008531402FF0004327700891000800F1002F
:100E42004327F1357008F107710891000800432724
:100E52001614080071087004031908007630F200B5
:100E62000330F3000130F2020030F33B73087204E6
:100E72000130031D342FF0020030F13B2B2F4327AA
:100E820016150800240016081F39031D432F141DD0
:100E92000800432F23008C1021008C1423000C1116
:100EA20021000C152830240095009601200023080B
:100EB200F3002208F2002108F1002008F0000230BD
:100EC200F035F10DF20DF30D890B612F0130F700B2
:100ED200E830F6004830F500F401862785317008C5
:100EE200FF3E2400920020002208063A80300319B7
:100EF20020061A30031921062304031D832F240020
:100F020094130800240094170800F801F901FA016B
:100F1200FB0173087204710470040319BC2FFC01F5
:100F2200FC0AF31B992FF035F10DF20DF30D912F01
:100F3200F835F90DFA0DFB0D73087702031DAB2F7F
:100F420072087602031DAB2F71087502031DAB2FC9
:100F520070087402031CB62F7008F4027108F53B86
:100F62007208F63B7308F73B7814F336F20CF10C77
:100F7200F00CFC0B992F7B08F3007A08F200790839
:100F8200F1007808F0000800F100DB2F4327160E6D
:100F9200890C890C01390800432796140800F000D7
:100FA20043277008031D9616031996121616080099
:100FB200F100E02FF00003395038FD000800F00086
:100FC20020382000B0000800F5002E08F4002D089B
:100FD200F3002C08F2000800AC0A0319AD0A031949
:100FE200AE0A0319AF0A00302F0208002B08F500E1
:0E0FF2002A08F4002908F3002808F20008007D
:020000040001F9
:04000E0084EFFFDE9E
:00000001FF
