:040000008031A6287D
:100008007E14803121002E08F1002D08F000873180
:10001800CC278031CC0A2E2801308331C12380318E
:10002800412800308331C123803141284B0B1F28E0
:100038000730CB004128CB0341284B08073A031966
:10004800CB01CB0A41284A08003A00300319013095
:10005800CA0041288731AE278031013A0319102898
:10006800033A03191528063A03191A280C3A0319F2
:100078002128183A03192728412820004C080A3A51
:10008800031DA3288631292680313E3083317D2304
:10009800803134308331182380310130FA01FA0A73
:1000A80087311D2780313830FA008830FB008731CE
:1000B8003D2780310730FA00013087311D27803114
:1000C8003E30FA000030FB0087313D278031023096
:1000D800FA01FA0A87311D2780313F30FA0088304B
:1000E800FB0087313D2780310730FA000230873125
:1000F8001D2780313430FA000030FB0087313D275E
:1001080080311030FA00023087311D2780314630A7
:100118002000A0008830A1004B08A2004830A301AD
:100128008531172580314830FA000030FB008731CF
:100138003D2780314A08873115272000CC0111104E
:100148007E1009008031A828A030CA01CB01CC015B
:10015800CD01CE0184000030850011308731D427CD
:1001680080317E102000B82821001908873970389E
:10017800990099170030C1000130C0008630BF00D7
:10018800A030BE0053228031003005238031DB20AF
:10019800803152228031EB20803150302100B30071
:1001A800C330B4000330B500CD228031DA28FF30E7
:1001B800B3000130AA218031FF302100B3000D3097
:1001C800AA218031FF302100B3000330AA2968300A
:1001D8002100C000E430BF00BF0BF028C00BF0289E
:1001E800000021000030B301AA2180312100123023
:1001F800B301AA2180312100C1014108A73E860030
:10020800063087018101C10A4102031C0129BB2173
:10021800803114302100BB002030BC015F218031C7
:1002280008302100BB002030BC01BC0A5F218031AE
:100238000130F522803104302100BB000830BC01B8
:10024800BC0A5F21803102302100BB000830BC01AC
:100258005F21803121000830BB01BB0ABC015F214E
:10026800803102302100BB000430BC01BC0A5F2190
:10027800803121000430BB01BB0ABC015F21803101
:1002880001309A21803115302100C000C630BF00EE
:10029800BF0B4C29C00B4C29000002309A21803139
:1002A80015302100C000C630BF00BF0B5929C00B54
:1002B800592900000800BD006F29BE018329BE012D
:1002C800BE0A832902306D2903306D2904306D2957
:1002D8000530BE0083293D08043A031961290C3A08
:1002E80003196329183A03196629303A031968294A
:1002F800603A03196A29C03A03196C298329BC0892
:10030800031D8D293E08A73E860087013B0981050C
:1003180093293E08A73E860087013B0881043E08D2
:10032800A73E8600870101083D049A292100BA00EA
:100338002F12EE218031000021003A08FC22803182
:1003480085302100B900B90BA7290800B40049225B
:1003580080312100B10130083F228031210034086A
:10036800F221803121003308F22180314F2A2F12E7
:10037800EE21803100000230C82180318530210013
:10038800B800B80BC52908002100B700F030AF0548
:1003980037080F39AF04EE2180312100AF16EE2166
:1003A800803103302100B6009730B500B50BDA294B
:1003B800B60BDA2900322100AF12EE21803103306A
:1003C8002100B6009730B500B50BE829B60BE8292F
:1003D800003208002F08B3001230AA292100B1000A
:1003E8003722210031082400910008004922803179
:1003F80021006830B1013F2280310030F221803184
:100408004C22803121006830B101B10A3F2280318D
:100418002100B3013308A03E8600870124228031E1
:10042800810000302C22803121000730B30A3302CA
:10043800031C0E2A2422803101302C2280314F2ABD
:10044800372280319615372211082100B1000800A3
:10045800B1003722210031082400031D9616031924
:10046800961216160800240016081F39031D372A8D
:10047800141D0800372AB20037222100B23531088E
:10048800B207320824009100080037221614080029
:10049800372296140800372216150800FA29230077
:1004A8008C1021008C1423000C1121000C1528300D
:1004B80024009500960121004108B4004008B300CB
:1004C8003F08B2003E08B1000230B135B20DB30D9D
:1004D800B40D890B692A0130B800E830B7004830FC
:1004E800B600B5018E2280313108FF3E240092000B
:1004F80021004008063A803003193E061A300319D5
:100508003F064104031D8B2A24009413080024008D
:1005180094170800B901BA01BB01BC0134083304BF
:10052800320431040319C42ABD01BD0AB41BA12A2F
:10053800B135B20DB30DB40D992AB935BA0DBB0D4D
:10054800BC0D34083802031DB32A33083702031DD3
:10055800B32A32083602031DB32A31083502031CB8
:10056800BE2A3108B5023208B63B3308B73B340817
:10057800B83B3914B436B30CB20CB10CBD0BA12A7C
:100588003C08B4003B08B3003A08B2003908B1008F
:1005980008008B1320001110210011140B178B1762
:1005A800200018103F30980521003508B600B60E17
:1005B8002000180821003606CF393606200098009A
:1005C8002100AD01AE013308AD023408AE3B2E0860
:1005D800B2002D08B10008231814CA01CB01CB0AB8
:1005E80008002100B50035082F13031D2F17EE2929
:1005F800B800380E0F39C8218031210038080F396A
:10060800C8292100B200142B20001810210032083C
:1006180020009700210031082000960018140800D7
:10062800B1002038B0000800FC001A302000A000FB
:100638008830A1008E2683312000A200A3018A26DB
:1006480083312000A400A501912683312000A60053
:10065800A7017C08172D00300F268331F400F20023
:100668000030F213BB252100A0130800A424833115
:100678000038031D0800A9248331FA000C307A02DF
:10068800F9010318F90AFA08031D4D2B0C30FA007A
:10069800532B0D307A02031C532BF430FA07013028
:1006A800F42483317908FF2483317A08D32CA424D5
:1006B8008331013A031D0800BF248331F900A924BE
:1006C8008331FA00F908031D6F2B7A080C3A031DD1
:1006D8006F2BFA01782B79080319782B0C307A02E2
:1006E8000318782B0C30FA070030F42483317A0889
:1006F800D32CFC00A4248331003A0319AD2B2930F4
:100708002000A0008830A100A92483312000A20085
:10071800A301B82483312000A400A501BB248331A0
:10072800FE26833117258331BF248331003A03190C
:10073800A22B7C08083E86005030A62B7C08083E79
:1007480086004130870181007C08093E86008101CE
:1007580008000A302000A0008830A100A9248331B5
:100768002000A200A301B82483312000A400A50121
:10077800BB248331FE268331172DFC007F2683316D
:1007880029268331702CA4248331003A0319032CC1
:10079800A9248331FD00BF248331FB007D080C3A76
:1007A80003197C080319DF2B7D080B3A031DE52B81
:1007B8007C080319E52B7B08003A00300319013047
:1007C800FB007D080C3A031DEE2B7C080319EE2B69
:1007D800FD01F92B7D0BF62BFC08031DF62B0C30C5
:1007E800FD00FC2B7C080319FB2BFD0AFC2BFD03E9
:1007F8007B08FF2483317D08D3248331882CA924E6
:100808008331FD001730F001F1007C08F2007D080B
:1008180089248331FD007D08D3248331882CB824B2
:100828008331FD003B30F001F1007C08F2007D08C7
:100838008924FD007D088F318E278331882CBB24C5
:100848008331FD003B30F001F1007C08F2007D08A7
:100858008924FD007D088F31B2278331882C8E26AC
:100868008331FD000C30F001F00AF1007C08F20041
:100878007D088924FD007D088F3198278331882CD5
:100888008A268331FD001F30F001F00AF1007C0850
:10089800F2007D088924FD007D088F31A52783316A
:1008A800882C91268331FD006330F001F1007C082B
:1008B800F2007D088924FD007D088F31842783316B
:1008C800882CA4248331013A031D6D2C5B238331CA
:1008D800882C3A238331882C20004B08013A0319CD
:1008E800C72B033A0319132C013A0319232C073A8F
:1008F8000319332C013A0319442C033A0319552CD4
:10090800013A0319652C882CDA2DF3007106031DB2
:10091800922C72080319922C70089A2C730870068E
:10092800031D9C2CF208031D9C2C7108F300A22CBB
:1009380072080319A12CF30AA22CF3037308080008
:1009480000302100221B01300800A4248331003A22
:100958000319B22C2208F5001F30B52C2208F50027
:100968003F30F50575080D2D210021080D2D2100BA
:1009780020087F390D2DA4248331003A0319C92C8E
:100988000030A21A0130F700D12CA924F6000C304F
:100998007602003003180130F70077080800F800E5
:1009A800A4248331003A0319E82C780803190800B5
:1009B8000D3078020318080060302205F700780827
:1009C8008F31C1278331032F1830780203180800AC
:1009D80040302205F70078088F31C1278331032F73
:1009E800F000700BFC2C210022084038A2000800FF
:1009F800210022130800F000A4248331003A0319CF
:100A08000800700B0B2D22082038A2000800A21243
:100A18000800F4000F39F3000A30F000740E0F39A3
:100A2800AF2573070800B1002230AC00D926833106
:100A3800B3080319AA2D3308253A0319272D3108BD
:100A4800F22683311A2DF82683312E3A031D492DBB
:100A5800A00A0319A10AB201F826833107278331B6
:100A6800031C4A2D20088400210885000008A800DE
:100A78000A30F0003208AF25833120002807D03E25
:100A8800B200A00A0319A10A302DB201D926833178
:100A9800003A0319AA2D753A0319532D1A2D2C085B
:100AA80086008701403FAD00413FAE00AC0AAC0A6A
:100AB800B208031D642D2E082D04031D642DB20AEF
:100AC800B301B30A3308E6268331AA00013FAB001D
:100AD8002E02031D712D2A082D02031C782DB30A3E
:100AE8003308053A031D662D3308803AA8003208FA
:100AF800803AA802031CA62D3208803AA8003308C1
:100B0800803AA8020318A62D3308B200A62D0A3091
:100B1800F700F8013208E6268331F000013FF100C2
:100B28002E08F3002D08F200942683317108FA008C
:100B38007008F900B92683317708303EB3003108D0
:100B4800F2268331B203320F8B2D1A2D310886001D
:100B5800870181010800F200F10170087218F1079D
:100B6800F035F236F208031DB12D71080800F300C4
:100B7800792683316830F00158268331730874264A
:100B880083317208742683317C260800F3007926A5
:100B98008331F00121003008582683317308742608
:100BA80083317208742683317C2608007F268331BE
:100BB800A017792683316830F00158268331003038
:100BC80074268331F5017508A03E86008701010867
:100BD800742683310730F50A7502031CE72D7C263D
:100BE80083312F2BF20079268331F0012100300860
:100BF8005826833172087426833169268331F001BF
:100C0800F00A210030085826833151268331F30039
:100C18007C2673080800F200792683316830F001D9
:100C280058268331720874268331692683316830E7
:100C3800F001F00A5826833151268331F300013040
:100C4800602683317C267308080079268331683052
:100C5800F0015826833100307426833169268331A8
:100C68006830F001F00A58268331F2010730720229
:100C780003184A2E7208A03E860087015126833148
:100C88008100003060268331F20A3A2E51268331E2
:100C98000130602683317C2608006C268331961546
:100CA8006C261108F0000800F1006C26F135700878
:100CB800F107710891000800F0006C267008031D08
:100CC800961603199612161608006C269614080034
:100CD800240016081F39031D6C2E141D08006C2EE5
:100CE800F0006C267008910008006C2616140800A5
:100CF8006C261615080000300F268331F400803862
:100D0800F2000030BB252100A017080021002408AC
:100D18003F390D2D210025080D2D210026080D2D08
:100D2800F401F501710870040319B42EF601F60AEE
:100D3800F11BA12EF035F10D9B2EF435F50D710840
:100D48007302031DA92E70087202031CB02E7008CE
:100D5800F2027108F33B7414F136F00CF60BA12E75
:100D68007508F1007408F000080078087704031982
:100D7800D42EFB01FB0AF81BC42EF735F80DBE2E46
:100D880078087A02031DCA2E77087902031CD02E30
:100D98007708F9027808FA3BF836F70CFB0BC42EF3
:100DA8007A08F8007908F70008002108A900200847
:100DB800A800A00A0319A10A8400290885000008D0
:100DC800B3000800A8000030A901A835A90D28071C
:100DD80084008830293D8500003F0800860087018F
:100DE80033088100B10A0800200884002108850022
:100DF800000808002000A600A7017C080800770466
:100E08002100A2000800F1003A30F0017102031835
:100E1800132F30307102031C132FF001F00A700CED
:100E28000800F400740821002F13031D2F17A827AA
:100E38000800FB00282FFC01362F4030262F1430E5
:100E4800262F5430FC00362F7B08013A03191F2F38
:100E5800033A0319212F013A0319232F073A0319DB
:100E6800252F1F2F7A08FF3EFC077C0880386D2746
:100E780008002000A0017B08FD007A08FC0020087B
:100E88007C0784007D0803187D0A85000008003867
:100E9800031908007B08FD007A08FC0020087C077D
:100EA80084007D0803187D0A850000085F278731C4
:100EB8002000A00A3F2FF90021002F16A82787310C
:100EC800000079087B2787318530F800F80B6A2FF6
:100ED8000800F90021002F12A8278731000079089F
:100EE8007B2787318530F800F80B782F0800F7004A
:100EF800770E0F398427873177080F398427080040
:100F0800F600F0302100AF0576080F39AF04A827A6
:100F180087312100AF16A82787310330F5009730B5
:100F2800F400F40B952FF50B952F00322100AF122A
:100F3800A82787310330F5009730F400F40BA22F6F
:100F4800F50BA22F003208002F08F200123085316D
:100F5800CA250800C9278731F400F408031DB82FF3
:100F68002000CE01CD01C72F740820004E06031DB6
:100F7800C42F74084D060319C62F7408CD00C72F57
:100F88007408CE00F4017408080013308531F62D7A
:100F980020001810710897007008960018140800AF
:0C0FA800640080010131890BD52F00345A
:10100000013400340A34003464340034E8340334E6
:101010001034273425342E34323475343A342534A0
:101020002E34323475343A3425342E343234753417
:101030002034003425342E34323475342F342534A2
:101040002E34323475342F3425342E343234753402
:10105000003425342E34323475343A3425342E3469
:10106000323475343A3425342E3432347534003405
:10107000543469346D3465343A34203400344434A3
:101080006134743465343A34203400342534753492
:0210900000342A
:101F0800F70064307702031808007708C12721001A
:101F1800A6000800F7003C3077020318080077088D
:101F2800C1272100A1000800F7007708031908005D
:101F38000D307702031808007708C1272100A50093
:101F48000800F70077080319080020307702031803
:101F580008007708C1272100A4000800F8003C30D9
:101F6800780203180800803021002005F70078085F
:101F7800C12777042100A0000800F6000A30F0000D
:101F88007608D0278F31F5000A30F0007608E82768
:101F9800890EF03975040800F2000830F300F401E6
:101FA8007208F1000730F136890BD72F74357104A8
:101FB800F400F23570087402031CE42F7008F40270
:101FC800F30BD42F74080800F100F301700803190B
:101FD800FE2FF201F20AF01BF32FF035EE2FF33546
:101FE80070087102031CFB2F7008F1027314F0369D
:081FF800F20BF32F730808003F
:020000040001F9
:04000E0084EFFFDE9E
:00000001FF
