:08000000803102288731FA2F3C
:10092200F20072088431C82408008431AA24240009
:10093200161408008431AA242400161508008431F4
:10094200AA24240096140800F20072088431C024FC
:100952000800240016081F3903191419AA2C0800CC
:10096200F0008431AA247008240091000800843128
:10097200AA242400160E890C890C01390800F10002
:1009820071082038F00070082000B6000800F1005D
:10099200710803395038F00070082000B5000800D3
:1009A200F0008431AA2470082400031D961603194E
:1009B200961216160800F2008431AA240310F20DD2
:1009C2007008F1007108F207720824009100080013
:1009D2008431AA248431240096158431AA24240067
:1009E2001108F0007008F1007108080084319624A3
:1009F2008431F001200035088431DC2484318431D3
:100A0200B8248431F3007308F40084319B24740801
:100A120008002000A000843196248531F0012000D6
:100A220036088431DC248531200020088431B12449
:100A320085317D088431B124853184319B240800BD
:100A420071087004031908007630F2000330F300D5
:100A5200730872040319352D0130F2020030F33BA2
:100A620073087204031D2D2D0130F0020030F13B9A
:100A7200212D7308F8007408F9007508FA00760849
:100A8200FB000E30FB36FA0CF90CF80C890B432DE7
:100A92007808043920003504FC007C08B500843154
:100AA20096248531F001200035088431DC2485311B
:100AB2007308F8007408F9007508FA007608FB005C
:100AC2000830FB36FA0CF90CF80C890B622D780809
:100AD2008431B124853173088431B124853177089A
:100AE2008431B124853184319B24080023008C1089
:100AF20021008C1423000C1121000C152830240035
:100B02009500960120002008A4002108A5002208D3
:100B1200A6002308A7000230A435A50DA60DA70D37
:100B2200890B8D2D2708F3002608F2002508F10015
:100B32002408F0000130F700E830F6004830F500F4
:100B42000030F40086310F2685317008FF3E240004
:100B52009200003020002306031DB92D0630220624
:100B6200031DB92D1A302106031DB92D8030200630
:100B7200031DBE2D240094130800240094170800BE
:100B82007308F7007408F8007508F9007608FA008F
:100B92000E30FA36F90CF80CF70C890BCA2D7708CF
:100BA200043920003504FB007B08B500843196240B
:100BB2008531F001200035088431DC248531730849
:100BC200F7007408F8007508F9007608FA00083092
:100BD200FA36F90CF80CF70C890BE92D77088431F9
:100BE200B124853173088431B12485318431A02444
:100BF2008531F001F00A200035088431DC2485318A
:100C02008431E9248531F7007708FC000130843112
:100C1200D124853184319B247C0808000030FC00FB
:100C22000030FB000030FA000030F9007308720453
:100C3200710470040319582EFD01FD0AF31B2D2EB9
:100C42000130F035F10DF20DF30D890B222E01303A
:100C5200F8007808FD071F2E0130F935FA0DFB0D5B
:100C6200FC0D890B2E2E73087702031D422E72088B
:100C72007602031D422E71087502031D422E700872
:100C82007402031C4D2E7008F4027108F53B7208C1
:100C9200F63B7308F73B79140130F336F20CF10C92
:100CA200F00C890B4E2E0130FD02031D2D2E7C0807
:100CB200F3007B08F2007A08F1007908F0000800DE
:100CC200210019088739703899009917E830F00027
:100CD2000330F10085312125863100302000A30048
:100CE2000130A2008630A100A030A0008531772516
:100CF2008631003084319124863101308431A5243B
:100D02008631FD01003085310A258631FD01013031
:100D120085310A25863100302000B4000030B3004E
:100D22000030B2000030B100A901A90A003034023B
:100D3200031DA42E00303302031DA42E0030320204
:100D42000830031931020318D72E3408F60033088D
:100D5200F5003208F4003108F3002908A800280839
:100D6200F70085313A2586318431F72486310038FF
:100D7200031DB52E20002935A8002808A90001303E
:100D8200B1070030B23D0030B33D0030B43D003019
:100D92003402031DD52E00303302031DD52E003040
:100DA2003202083003193102031CA62E8030A8003B
:100DB2002808AA0000303402031DE92E0030330255
:100DC200031DE92E00303202031DE92E10303102DC
:100DD20003181D2F3408F6003308F5003208F4001A
:100DE2003108F3002A08A8002808F70085313A25BF
:100DF20086318431F72486310038031DFA2E200013
:100E02002A36A8002808AA000130B1070030B23DF6
:100E12000030B33D0030B43D00303402031D1B2FBF
:100E220000303302031D1B2F00303202031D1B2F23
:100E320010303102031CEB2E0030B4000030B3003E
:100E42000030B2000030B1008030A8002808AB00AA
:100E520000303402031D362F00303302031D362FBB
:100E62000030320208300319310203186D2F0030AE
:100E72003107F3001030323DF4000030333DF5000D
:100E82000030343DF6002B08A8002808F700853111
:100E92003A2586318431F72486310038031D4B2FE1
:100EA20020002B36A8002808AB000130B107003023
:100EB200B23D0030B33D0030B43D00303402031D7A
:100EC2006B2F00303302031D6B2F003032020830CB
:100ED20003193102031C382FAC01AC0A0030340272
:100EE200031D7D2F00303302031D7D2F003032029F
:100EF200031D7D2F103031020318A62F0030310759
:100F0200F3001030323DF4000030333DF500003084
:100F1200343DF6002C08A8002808F70085313A2550
:100F220086318431F72486310038031D922F200048
:100F32002C35A8002808AC000130B1070030B23DC2
:100F42000030B33D0030B43D6F2F0030B0000030B0
:100F5200AF000030AE000030AD0000303002031DA3
:100F6200BC2F00302F02031DBC2F00302E02031DA8
:100F7200BC2F10302D020318A62F3008F6002F08C0
:100F8200F5002E08F4002D08F3008531C1258631C5
:100F92002000A8002808FD00123085310A2586317C
:100FA200003020002D07F30010302E3DF4000030F9
:100FB2002F3DF5000030303DF6008531C1258631E8
:100FC2002000A8002808FD00133085310A2586314B
:100FD200FA30F0000030F1008531212586310130F0
:100FE2002000AD070030AE3D0030AF3D0030B03DD7
:0E0FF200AE2FB501B6017E1020008631612EB3
:020000040001F9
:04000E0084EFFFDE9E
:00000001FF
