:040000008031D4284F
:100008007E14803120007F08BE0021004508F101E0
:10001800F1074408F001F0078C312C2480310130BD
:100028002000BC003C08D707472801308031E62073
:1000380080315A2800308031E62080315A2820004B
:100048005608013A031D2D280730BC003C08D6008D
:100058005A280130D6025A2820005608073A031DAC
:100068003828D601D60A5A280130BC003C08D607E1
:100078005A2820005508003A003003190130BC0006
:100088003C08D5005A288E319B268031013A031945
:100098001928033A03191E28063A031923280C3A8B
:1000A80003193028183A03193D285A282000570800
:1000B8000A3A031DCF288731172780314930833109
:1000C800BC2380313F308531D7258031FD01FD0AC1
:1000D80001308F310327803138302000A00086306E
:1000E800A1008F312A27803107302000BC003C084E
:1000F800FD0001308F310327803149302000A000F6
:100108000030A1008F312A278031FD01FD0A02301D
:100118008F31032780313F302000A0008630A100B6
:100128008F312A27803107302000BC003C08FD00B1
:1001380002308F31032780313F302000A00000308B
:10014800A1008F312A27803110302000BC003C08E4
:10015800FD0002308F310327803146302000A00097
:100168008630A1005608BC00BD013C08A2003D082D
:10017800A300533082311B22803153302000A0006D
:100188000030A1008F312A278031200055088C319A
:1001980045242000D70111103E08FF007E100900F9
:1001A8008031D628D501D601D701D801D901B73079
:1001B80084000030850013308C3111247E1020001B
:1001C8008F317C2F2000AD008D31FD2580318731A6
:1001D80017278031002A8B31DC238031003A03193C
:1001E80042298D31AA2580312000A9002908AE00B6
:1001F8008E31442680312000A9002908AC002E0841
:100208000C3A03192D08031910292E080B3A031D5F
:1002180018292D08031918292C08003A0030031949
:100228000130A9002908AC002E080C3A031D222928
:100238002D0803192229AE01AE0A38292E08013AE1
:10024800031D2E29AD08031D2E290C30A9002908ED
:10025800AE0038292D08031936290130A9002908CC
:10026800AE0738290130AE022C088E312B2680319A
:1002780020002E088F31A7278031182A8D31AA2512
:1002880080312000A9002908AE00F0011730A9002C
:100298002908F1002D08AA002A08F2002E088E313C
:1002A800BD2680312000AB002B08AE002E088F3110
:1002B800A7278031182A8B31D72380312000A90045
:1002C8002908AE00F0013B30A9002908F1002D08EB
:1002D800AA002A08F2002E088E31BD26803120009F
:1002E800AB002B08AE002E088C318D248031182AE3
:1002F8008C31052480312000A9002908AE00F001C6
:100308003B30A9002908F1002D08AA002A08F200AC
:100318002E088E31BD2680312000AB002B08AE00A0
:100328002E088D314E258031182A8B31CD2380310E
:100338002000A9002908AE00F001F00A0C30A9003D
:100348002908F1002D08AA002A08F2002E088E318B
:10035800BD2680312000AB002B08AE002E088D3161
:100368002E258031182A8B31FF2380312000A900E7
:100378002908AE00F001F00A1F30A9002908F10091
:100388002D08AA002A08F2002E088E31BD268031D9
:100398002000AB002B08AE002E088D311E258031C1
:1003A800182A8B31D22380312000A9002908AE00F9
:1003B800F0016330A9002908F1002D08AA002A08D5
:1003C800F2002E088E31BD2680312000AB002B08AC
:1003D800AE002E088C319A248031182A8B31DC2308
:1003E8008031013A031DFC298731BD278031182A45
:1003F80085311A258031182A20005608013A031938
:10040800EF28033A03195F29013A03197C29073AAF
:1004180003199929013A0319B729033A0319D52968
:10042800013A0319F229182A85314B2508002000C2
:10043800B2002230A8002808AD002108A900200831
:10044800A800A00A0319A10A280884002908850021
:100458000008AA002A08B400B4080319252B340898
:10046800253A0319432A3408A80032088600870170
:10047800280881000130A8002808B207212AAC0109
:10048800200884002108850000082E3A031D752ADB
:100498000130A0070030A13DB301200884002108E5
:1004A800850000088C31B4248231031C7D2A200089
:1004B80020088400210885000008A8000A30A90047
:1004C8002908F00033088731EF27823120002807F8
:1004D800D03EAA002A08B3000130A0070030A13D91
:1004E800512A2000B3017D2AC030A8002808AC0496
:1004F800922A20002108A9002008A800A00A0319B0
:10050800A10A28088400290885000008B400003AD8
:100518000319252B753A0319782A212A2D088600F4
:100528008701403FAE00413FAF000230A8002808D5
:10053800AD07B308031DA82A2F082E04031DA82AF7
:100548000130A8002808B307B401B40A3408053AF2
:100558000319CD2A3408A800A901A835A90D00302F
:10056800280784008630293D8500003FAA00013F06
:10057800AB002B082F02031DC32A2A082E02031CD6
:10058800CD2A0130A8002808B4073408053A031D0D
:10059800AE2A3408803AA8003308803AA802031823
:1005A800DA2A3308A8002808B400E62A3308803A73
:1005B800A8003408803AA8020318E62A3408A800DC
:1005C8002808B300FF30A8002808B3073308FF3A0B
:1005D8000319212A0A30F8000030F9003308A8006E
:1005E800A901A835A90D0030280784008630293DC7
:1005F8008500003FF000013FF1002F08F301F307E9
:100608002E08F201F2078731552782317108FB0164
:10061800FB077008FA01FA078531A92582317808A5
:10062800303E2000AA002A08B4003408A800320886
:1006380086008701280881000130A8002808B20731
:10064800E62A320886008701810108006830210007
:10065800B300E430B200B20B2F2BB30B2F2B0000EA
:100668002100A30100308E31132683312100A3011C
:1006780012308E31132683312100B4010630340242
:100688000318532B3408BE3E8600870181010130D0
:10069800B2003208B40706303402031C462B8D31F1
:1006A8003E25833114302100B2003208AD00AE017E
:1006B800203086319026833108302100B20032087C
:1006C800AD00AE01AE0A203086319026833101306C
:1006D8008C316024833104302100B2003208AD002F
:1006E800AE01AE0A083086319026833102302100EF
:1006F800B2003208AD00AE01083086319026833151
:100708002100AD01AD0AAE01083086319026833153
:1007180002302100B2003208AD00AE01AE0A04304A
:100728008631902683312100AD01AD0AAE01043037
:1007380086319026833101308D3172258331153011
:100748002100B300C630B200B20BA82BB30BA82B04
:10075800000002308D317225833115302100B3003D
:10076800C630B200B20BB62BB30BB62B0000080094
:100778002000BB008B31DC238331003A0319022CA3
:1007880029302000A0008630A1008D31AA258331B0
:100798002000B500B6013508A2003608A3008B3149
:1007A800D72383312000B700B8013708A4003808E0
:1007B800A5008C31052483312000B900BA0139081D
:1007C800A6003A08A7003B0882311B2283318E31EC
:1007D80044268331003A0319F32B5030F42B41306F
:1007E8002000B5003B08083E8600870135088100D7
:1007F8003B08093E86008701810108000A30200075
:10080800A0008630A1008D31AA2583312000B500D3
:10081800B6013508A2003608A3008B31D7238331EF
:100828002000B700B8013708A4003808A5008C31AB
:10083800052483312000B900BA013908A6003A0816
:10084800A7003B0882311B22080000302100AC00C1
:100858000030AB000030AA000030A90023082204B1
:10086800210420040319732CAD01AD0AA31B482CE5
:100878000130A035A10DA20DA30D890B3D2C01302F
:10088800A8002808AD073A2C0130A935AA0DAB0DF0
:10089800AC0D890B492C23082702031D5D2C220867
:1008A8002602031D5D2C21082502031D5D2C20084E
:1008B8002402031C682C2008A4022108A53B220856
:1008C800A63B2308A73B29140130A336A20CA10C90
:1008D800A00C890B692C0130AD02031D482C2C0893
:1008E800A3002B08A2002A08A1002908A0000800DC
:1008F800F601F11F862CF009F109F00A0319F10A33
:10090800F601F60AF31F912CF209F309F20A03190A
:10091800F30A0130F4007408F606F701F8017108CB
:1009280070040319C02CF501F50AF11BA52C013040
:10093800F035F10D890B9C2C0130F4007408F50793
:10094800992C0130F735F80D890BA62C7108730224
:10095800031DB02C70087202031CB72C7008F20239
:100968007108F33B77140130F136F00C890BB82C81
:100978000130F502031DA52C76080319C82CF709C8
:10098800F809F70A0319F80A7808F101F107770856
:10099800F001F007080023008C1021008C142300BC
:1009A8000C1121000C152830240095009601210017
:1009B8002E08B2002F08B3003008B4003108B50083
:1009C8000230B235B30DB40DB50D890BE52C3508E1
:1009D800A3003408A2003308A1003208A0000130A7
:1009E800A700E830A6004830A5000030A4008431F4
:1009F8002924843121002008FF3E24009200003081
:100A080021003106031D122D06303006031D122D5C
:100A18001A302F06031D122D80302E06031D172DA8
:100A28002400941308002400941708008B31DC2359
:100A380085310038031D08008D31AA258531FD0058
:100A48007D082000A8000C30280203182D2DA701CE
:100A58002F2DA701A70AA808031D342D0C303A2D05
:100A68000D302802031C3D2D2808F43EFD007D08AA
:100A7800A80001308D3197258531200027088E3157
:100A88002B268531200028088F31A72708008D31B3
:100A9800FD258531210037088038F8007808B7002F
:100AA8008B31E6238531F00168308C318024853123
:100AB80000308C311E248531F90107307902031882
:100AC800752D7908B73E8600870101088C311E24F0
:100AD80085310130F8007808F90707307902031CDE
:100AE800652D8B31EB2385318D31E7250800F90021
:100AF8000A30F0000030F10079082000A000A101C0
:100B08002008F2002108F300863149268531700853
:100B18002000A2007108A3000A30F0000030F100A4
:100B28007908A400A5012408F2002508F3008431FF
:100B38007C24853170082000A6000330A635FF3ECE
:100B4800031DA22D2635220408007908780403190C
:100B5800D02DFD01FD0AF91BBB2D0130F835F90D2B
:100B6800890BB22D0130FC007C08FD07AF2D7908F8
:100B78007B02031DC12D78087A02031CC72D780853
:100B8800FA027908FB3B0130F936F80C890BC82DBD
:100B98000130FD02031DBB2D7B08F901F9077A0816
:100BA800F801F80708002000BB001A30A0008630C2
:100BB800A1008B31CD2385312000B500B601350861
:100BC800A2003608A3008B31FF2385312000B7002F
:100BD800B8013708A4003808A5008B31D223853125
:100BE8002000B900BA013908A6003A08A7003B0856
:060BF80082311B220800FF
:100C0000013400340A34003464340034E8340334EA
:100C10001034273425342E34323475343A342534A4
:100C20002E34323475343A3425342E34323475341B
:100C30002034003425342E34323475342F342534A6
:100C40002E34323475342F3425342E343234753406
:100C5000003425342E34323475343A3425342E346D
:100C6000323475343A3425342E3432347534003409
:100C7000543469346D3465343A34203400344434A7
:100C80006134743465343A34203400342534753496
:100C90000034F601F31F532EF209F309F20A031987
:100CA000F30AF601F60AF11F5A2EF009F109F00ACB
:100CB0000319F10A710870040319812EF501F50A70
:100CC000F11B6C2E0130F035F10D890B632E0130D4
:100CD000F4007408F507602E71087302031D722E6C
:100CE00070087202031C782E7008F2027108F33B40
:100CF0000130F136F00C890B792E0130F502031D1D
:100D00006C2E76080319892EF209F309F20A0319E9
:100D1000F30A7308F101F1077208F001F007080007
:100D20002100B000A32EB101B72EB101B10AB72E38
:100D300002309F2E03309F2E04309F2E0530AF00CF
:100D40002F08B100B72E3008043A0319932E0C3A3D
:100D50000319952E183A0319982E303A03199A2E32
:100D6000603A03199C2EC03A03199E2EB72EAE0886
:100D7000031DC32E2D09AF003108BE3E860087013A
:100D80002F088105CB2E2D08AF003108BE3E86000E
:100D900087012F0881043108BE3E860087010108C3
:100DA00030048D31722508008B31F5238631210006
:100DB000A00168308C31DF24863100308C314E2424
:100DC00086318B31F02386312100A001A00A6830E2
:100DD0008C31DF2486312100A4010730240203185E
:100DE000092F8C31D02486312100A3002408B73E7E
:100DF000860087012308810000308C31A7248631CA
:100E000001302100A3002308A40707302402031C9B
:100E1000F12E8C31D02486312100A3002308C70095
:100E200001308C31A72486318B31FA2308008B31B5
:100E3000E6238731F00168308C318024873100301F
:100E40008C311E2487318B31E1238731F001F00A88
:100E500068308C3180248731F40107307402031824
:100E6000472F8C31C2248731F3007408B73E8600C7
:100E700087017308810000308C316924873101308B
:100E8000F3007308F40707307402031C312F8C3110
:100E9000C2248731F30073082100C70001308C3170
:100EA000692487318B31EB230800F501F6017108C5
:100EB00070040319842FF701F70AF11B692F013021
:100EC000F035F10D890B602F0130F4007408F7073D
:100ED0005D2F0130F535F60D890B6A2F710873020D
:100EE000031D742F70087202031C7B2F7008F2021E
:100EF0007108F33B75140130F136F00C890B7C2F2F
:100F00000130F702031D692F7608F101F10775081A
:100F1000F001F00708008B132000111021001114BC
:100F20000B178B17200018103F309805210024085C
:100F3000A500A50E2000180821002506CF3925069A
:100F40002000980021002209A5002309A600A50A77
:100F50000319A60A2508C4002608C5004508A101F2
:100F6000A1074408A001A0078C31742420001814A4
:100F7000D501D50AD601D60A08008B31DC2387318A
:100F8000013A031D08008E3144268731FD007D089B
:100F90002000A7008D31AA258731FD007D082000A3
:100FA000A800A708031DDA2F28080C3A031DDA2F22
:100FB000A801E62F27080319E62F0C302802031892
:100FC000E62F28080C3EFD007D08A80000308D317A
:100FD00097258731200028088F31A7270800F300C4
:100FE000F201731CF72F7008F1007108F20703106B
:100FF000F00D0310F30CF308031DF12F7208080025
:10178C008631D426080013308E31792608002100CA
:10179C003C088D318425080021003D088D318425BD
:1017AC000800210038088D31842508000030210004
:1017BC00391B013008008C311724240096140800C2
:1017CC008C3117242400161408008C3117242400A3
:1017DC00161508008C3125242400961408008C3131
:1017EC0025242400161408008C31252424001615F9
:1017FC00080021003B083F398D3184250800210069
:10180C0037087F398D31842508002100A200220879
:10181C008C3134240800640080010131890B122CB6
:10182C000034240016081F3903191419172C08004A
:10183C00F0008C311724700824009100080024005B
:10184C0016081F3903191419252C0800200018102C
:10185C007108970070089600181408002100A10068
:10186C0021082038A0002008C900080021004608E3
:10187C00F5007508F30012308D31D2250800F60002
:10188C00760821004613031D46178C313C240800B2
:10189C002100A0008C312524210020082400910077
:1018AC00080021004608A5002508A30012308E313F
:1018BC00132608002100A60026084613031D461710
:1018CC008C3157240800F0008C3117247008240048
:1018DC00031D9616031996121616080020001810F0
:1018EC0021002108200097002100200820009600EC
:1018FC0018140800F2008C3117240310F20D700834
:10190C00F1007108F2077208240091000800FB0036
:10191C003C307B02031808007B0885317B25FA00DC
:10192C007A082100B8000800FB0064307B02031821
:10193C0008007B0885317B25FA007A082100BD0060
:10194C0008002100A0008C3125242100200824004F
:10195C00031D96160319961216160800F100F001D5
:10196C003A3071020318C02C30307102031CC02CA9
:10197C00F001F00A700C08008C3117248C31240013
:10198C0096158C31172424001108F0007008F10012
:10199C00710808008C3125248C31240096158C316B
:1019AC002524240011082100A0002008A1002108F2
:1019BC0008002100A2008C31252403102100A20D67
:1019CC002008A1002108A207220824009100080089
:1019DC00FA007A08F9000430F936890BF22C7908F0
:1019EC008F3151278C317A080F398F3151270800EC
:1019FC00FC00210046128C313C248C3100007C0808
:101A0C008C31EE248C318530FB00FB0B0B2D080048
:101A1C00FC00210046168C313C248D3100007C08E2
:101A2C008C31EE248D318530FB00FB0B1B2D080017
:101A3C00FB007B080319080020307B020318080008
:101A4C007B0885317B25FA007A082100BB00080051
:101A5C00FB007B08031908000D307B0203180800FB
:101A6C007B0885317B25FA007A082100BC00080030
:101A7C00210046128C3157248D31000002308F31F9
:101A8C00D3278D3185302100A900A90B4B2D0800DF
:101A9C00FC003C307C020318080080302100370524
:101AAC00FA007C0885317B257A04FB007B08210039
:101ABC00B70008002100AA002A08A9000430A936A2
:101ACC00890B652D29088F31D3278D3121002A08E8
:101ADC000F398F31D32708002100AC0046128C310E
:101AEC0057248D31000021002C088D3160258D315B
:101AFC0085302100AB00AB0B812D0800F7000F30B7
:101B0C007705F4000A30F5007508F0007708F60048
:101B1C000430F636890B8F2D76088731EF27740742
:101B2C000800F1007108013A031DA32D21003908AA
:101B3C004038F0007008B900080021003908BF399E
:101B4C00F0007008B90008008B31DC238D31003AAD
:101B5C000319B42D210039081F39B72D210039087C
:101B6C003F39F8007808F90079088D318425080090
:101B7C00F4008B31E6238D31F00168308C318024F8
:101B8C008D3174088C311E248D3173088C311E24D8
:101B9C008D318B31EB230800F4008B31E6238D3132
:101BAC00F001210049088C3180248D3174088C316E
:101BBC001E248D3173088C311E248D318B31EB2317
:101BCC00080000308E31DF268D31F6007608F700E4
:101BDC0077087F39F6007608F30000308D31BE258A
:101BEC00210037087F39F6007608B700080000306E
:101BFC008E31DF268D31F6007608F70077088038B5
:101C0C00F6007608F30000308D31BE252100370830
:101C1C008038F6007608B70008002100A4008B314C
:101C2C00F5238E312100A00149088C31DF248E313F
:101C3C00210024088C314E248E31210023088C3154
:101C4C004E248E318B31FA230800F1008B31DC23CA
:101C5C008E31003A031908007108013A031D3D2E1C
:101C6C00210039082038F0007008B9000800210064
:101C7C003908DF39F0007008B90008008B31DC231B
:101C8C008E31003A0319512E00302100B91A01305F
:101C9C00FA007A085B2E8D31AA25FA000C307A02F4
:101CAC00003003180130FB007B08FC007C080800A6
:101CBC00FF302100A5002508A30001308E3113262A
:101CCC008E31FF302100A5002508A3000D308E3188
:101CDC0013268E31FF302100A5002508A300033008
:101CEC008E3113260800F4008B31E6238E31F0017F
:101CFC00210049088C3180248E3174088C311E24CB
:101D0C008E318B31E1238E31F001F00A210049082C
:101D1C008C3180248E318C31C2248E31F3007308C7
:101D2C00F5008B31EB23750808008B31C9238E31FC
:101D3C00F6007608F700F708031DA82E2000D9013D
:101D4C00D801BB2E770820005906031DB62E770844
:101D5C0058060319BA2E7708F6007608D800BB2E61
:101D6C007708F6007608D900F70177080800F40028
:101D7C0074087106031DC72E72080319C72E70084C
:101D8C00CF2E74087006031DD32EF208031DD32E1C
:101D9C007108F3007308F400DD2E72080319DB2EB2
:101DAC000130F3007308F407DD2E0130F4027408DF
:101DBC000800F4008B31E6238E31F00168308C3151
:101DCC0080248E3174088C311E248E318B31E123AA
:101DDC008E31F001F00A68308C3180248E318C31D8
:101DEC00C2248E31F3007308F50001308C31692464
:101DFC008E318B31EB23750808002000A100122FC7
:101E0C00102F40300C2F14300C2F5430A000200811
:101E1C00A200202FA201202F2108013A0319062F1E
:101E2C00033A0319072F013A0319092F073A03192B
:101E3C000B2F102F7D08FF3EA0002008A2072208C0
:101E4C0080388C31FE240800FD0120002108A300FD
:101E5C002008A2007D082207840023080318230A07
:101E6C008500000800380319080020002108A30091
:101E7C002008A2007D082207840023080318230AE7
:101E8C00850000088D310E258F3101302000A20015
:101E9C002208FD072B2FF800F030F6007608210001
:101EAC00C60578080F39F6007608C6048C313C2438
:101EBC008F312100C6168C313C248F310330F70052
:101ECC009730F600F60B682FF70B682F00322100C5
:101EDC00C6128C313C248F310330F7009730F6005A
:101EEC00F60B762FF70B762F00320800210019081D
:101EFC0087397038990099170030B1000130B00063
:101F0C008630AF00A030AE008431CF248F3100304A
:101F1C008C310B248F318E315E268F318B31C62361
:101F2C008F3183312A238F3150302100A200C330EE
:101F3C00A3000330B6003608A40087318B278F31FD
:101F4C00A62FFC008B31DC238F31003A0319C22FF2
:101F5C007C08031908000D307C020318080060305F
:101F6C0021003905FA007C0885317B257A04FB00B9
:101F7C007B082100B900080018307C020318080007
:101F8C00403021003905FA007C0885317B257A0424
:101F9C00FB007B082100B90008002100A800F030EC
:101FAC00A6002608C60528080F39A6002608C60470
:101FBC008C3157248F312100C6168C3157248F3128
:101FCC0003302100A7009730A600A60BEB2FA70B20
:101FDC00EB2F00322100C6128C3157248F31033085
:101FEC002100A7009730A600A60BFA2FA70BFA2FFB
:041FFC0000320800A7
:020000040001F9
:04000E0084EFFFDE9E
:00000001FF
