:08000000803102288731FB2F3B
:100CF000F200720886319A26080086318C2624007C
:100D00009614080086318C262400161408008631BB
:100D10008C26240016150800240016081F39031914
:100D200014198C2E0800F00086318C2670082400DF
:100D300091000800F10071082038F00070082000D0
:100D4000AB000800F20086318C260310F20D70080B
:100D5000F1007108F2077208240091000800863142
:100D60008C2686312400961586318C2624001108A5
:100D7000F0007008F10071080800F4008631822646
:100D80008631F00120002B088631A22686317408B6
:100D900086319326863173088631932686318631D3
:100DA0008726080071087004031908007630F200E5
:100DB0000330F300730872040319E62E0130F202C7
:100DC0000030F33B73087204031DDE2E0130F00285
:100DD0000030F13BD22EF400863182268631F001BC
:100DE00020002B088631A22686317408863193268E
:100DF000863186317D268631F001F00A20002B08ED
:100E00008631A22686318631AF268631F3007308FB
:100E1000F500863187267508080023008C10210014
:100E20008C1423000C1121000C152830240095008F
:100E3000960120002008A4002108A5002208A60091
:100E40002308A7000230A435A50DA60DA70D890B18
:100E5000232F2708F3002608F2002508F1002408B4
:100E6000F0000130F700E830F6004830F5000030BF
:100E7000F4008731572787317008FF3E2400920025
:100E8000003020002306031D4F2F06302206031DCD
:100E90004F2F1A302106031D4F2F80302006031DCF
:100EA000542F2400941308002400941708000030E5
:100EB000FC000030FB000030FA000030F90073083D
:100EC0007204710470040319A02FFD01FD0AF31BC5
:100ED000752F0130F035F10DF20DF30D890B6A2FEE
:100EE0000130F8007808FD07672F0130F935FA0D59
:100EF000FB0DFC0D890B762F73087702031D8A2FDB
:100F000072087602031D8A2F71087502031D8A2F4D
:100F100070087402031C952F7008F4027108F53BE9
:100F20007208F63B7308F73B79140130F336F20C84
:100F3000F10CF00C890B962F0130FD02031D752F6B
:100F40007C08F3007B08F2007A08F1007908F000D1
:100F50000800210019088739703899009917E8307E
:100F6000F0000330F1008631D226873100302000B6
:100F7000A3000130A2008630A100A030A00087317C
:100F80000D2787310130863178268731F301003013
:100F90008631BD268731F30101308631BD26873188
:100FA0002000AA01AA0AAA080319D02F2A08A8001B
:100FB0002808F30012308631BD2687311230863181
:100FC000EB2687312000A8002808A9002908A800DE
:100FD0002808F30013308631BD268731FA30F0003F
:100FE0000030F1008631D226873120002A35A80052
:100FF0002808AA00D32FAB017E1020008731A92F2B
:020000040001F9
:04000E0084EFFFDE9E
:00000001FF
